:100000000C947F040C949E040C949E040C94B628CB
:100010000C949E040C949E040C949E040C949E04D8
:100020000C949E040C949E040C949E040C949E04C8
:100030000C94B4290C949E040C949E040C940336E6
:100040000C949E040C949E040C949E040C949E04A8
:100050000C94AC280C949E040C949E040C949E0466
:100060000C949E040C949E040C949E040C949E0488
:100070000C949E040C949E040C94E1280C949E0411
:100080000C949E040C946B390C949E04EE0F67083C
:10009000ED0E8C00EB0D9000E70C9400DE0B980049
:1000A000DD0A9C00DB09A000D708A400BE07A80059
:1000B000BD06AC00BB05B000B704B4007E03B800B9
:1000C0007D02BC007B01C0007700C400A20497043D
:1000D0008F04860478046D04640459044E044304B8
:1000E00039042F04220414040704FF03F703B703A1
:1000F000A703970389037B03710364035A034D032A
:100100004803430342033503280320031103090373
:10011000FF02F302E302D502C802BC02B802B50234
:10012000AC02A702A002970288027E027502680252
:100130005B024C024002360229021A02120203023A
:10014000F101E101CF01BB01AF01A0018F018501E8
:100150007A016E01620158015357204143544956B8
:1001600045005357204445414354495645004841B2
:1001700056452053455249414C0053595354454D1F
:10018000204E4F540054727920416761696E0049D6
:100190006E76616C69642050617373776F7264006E
:1001A000456E7465722050617373776F726400736B
:1001B0007461746520697320343800206469737039
:1001C0006C6179206D617820616374697665005691
:1001D000414C49442046524F4D205B312D33315D17
:1001E00000444953504C41592054494D45204953EE
:1001F0000056414C49442046524F4D205B312D362C
:10020000305D0042555A5A45522054494D452049C7
:1002100053004D41494E2049440044414E47444F0C
:100220004E472053544154450052455345542053A2
:10023000595354454D004D415820515545554500A1
:1002400042555A5A45522054494D4500444953415C
:10025000504C45442053544154450042555A5A4548
:100260005220535441544500535749544348205356
:100270005441544500495020535441544500454D84
:10028000455247454E43590043414C4C204153533E
:100290004945535345540041535349535345540022
:1002A00043454E43454C0043414C4C004449534167
:1002B000424C4544004F4E004F4646005245535471
:1002C0002053595354454D0053595354454D2053D1
:1002D00054415445004163746976652053797374C1
:1002E000656D00496E616374697665205379737436
:1002F000656D00456E746572205357204950005358
:10030000574954434820494400524F4F4D204944D7
:10031000004E4F54204143544956454154454400F2
:100320005359535952454D0055524745204F4E2081
:10033000424544200043414C4C204F4E204245440E
:100340002000005249443A004249443A00495020B2
:1003500044452D414354495645004950204143549A
:1003600049564500454E5445522041444420312DC4
:100370000054525920414741494E004E4554574F71
:10038000524B204552524F5200456E7465722052B6
:100390006F6F6D20495000544F20524553455420F3
:1003A0004D4F44554C4500504C454153452050520B
:1003B000455353204631004E55525345205359530F
:1003C00059454D205345525645522D54454C3A2BD4
:1003D0003230313232343036363637302D454D41B9
:1003E000494C3A7777772E736D617274736F6C2D09
:1003F00065672E636F6D004D4F44554C4553005754
:10040000454C434F4D4500524553455420434F4EB4
:1004100046494700524553455420576F726B696EE9
:10042000670052455345542053455241494C0052B0
:1004300045534554204C4F47005245534554205393
:1004400057440052455345542053574320005245CA
:1004500053455420524F4F4D00524553455420446C
:10046000504C5900524553455420495000496E762E
:10047000616C696420494400456E74657220526F56
:100480006F6D20494400456E746572204944005BDD
:10049000315D2E2E2E5B00495020494E56414C496D
:1004A0004400454E54455220495000DE04C8047CA7
:1004B000079B08D91AB704342E44414E47444F4E87
:1004C0004720535441544500AB04DE047C079B088D
:1004D0007219D404322E4D41494E20494400C804BB
:1004E000AB047C079B08EE19EA04312E41435449C2
:1004F0005645205357495443480069051805990744
:100500009B0800000605352E4C45442042555A5A9A
:1005100045522054494D4500FA04330599079B087C
:1005200000002405342E4C454420524553504F4E74
:1005300053450018054C0599079B0800003F0533FB
:100540002E4C45442042555A5A4552003305690500
:1005500099079B0800005805322E4C454420485707
:100560002056455253494F4E004C05FA0499079BBB
:100570000800007505312E4C45442053434F524C22
:100580004C2054494D45006F06A605B3079B0893C0
:1005900010930531302E44495341424C4544205379
:1005A000595354454D008705C105B3079B082E11CB
:1005B000B20530392E42555A5A45522054494D45BC
:1005C00000A605DD05B3079B08F70FCD0530382ED3
:1005D00042555A5A455220535441544500C105F6DC
:1005E00005B3079B08510FE90530372E53573320C9
:1005F000535441544500DD050F06B3079B084C0FCB
:10060000020630362E53573220535441544500F6DB
:10061000052806B3079B08470F1B0630352E535796
:1006200031205354415445000F063F06B3079B0841
:10063000AA0E340630342E524F4F4D204950002818
:10064000065606B3079B08940E4B0630332E524FC6
:100650004F4D204944003F066F06B3079B089F0E8D
:10066000620630322E5357495443482049440056BD
:10067000068705B3079B08560F7B0630312E53576C
:100680004954434820454E41424C4500F806A406D3
:100690002E079B08AD169806352E5245534554201B
:1006A0004C4F47008C06C0062E079B088416B006E8
:1006B000342E524553455420535720444154410051
:1006C000A406DE062E079B085F16CC06332E524585
:1006D00053455420535720434F4E46494700C006C8
:1006E000F8062E079B083A16EA06322E5245534565
:1006F0005420524F4F4D5300DE068C062E079B08A8
:1007000015160407312E5245534554204449535081
:100710004C4159530049072E07EE079B08DD16216F
:1007200007332E446561637469766174650015074B
:100730004907EE07F80600003A07322E52455345A6
:1007400054204D4F44554C45002E071507EE079B8E
:1007500008E21E5507312E524553455420414C4C5A
:1007600000B3077C0709089B08A9206D07342E42B7
:10077000555A5A4552205354415445006107990730
:100780000908DE041D098807332E444953504C41A3
:100790005920434F4E464947007C07B30709086973
:1007A000051D09A507322E524F4F4D20434F4E468F
:1007B00049470099077C0709086F061D09BF0731E3
:1007C0002E53574954434820434F4E464947003A19
:1007D00008EE0752089B089D08DB07352E53595336
:1007E00054454D20574F524B2054494D4500CF079B
:1007F000090852084907211DFA07342E535953544A
:10080000454D20524553455400EE0724085208B385
:1008100007211D1508332E434F4E46494720504FA0
:10082000494E540009083A0852089B0849173008F5
:10083000322E4C4F4144204950002408CF07520823
:100840009B08BB054608312E444154452054494D70
:1008500045009B089B089B083A0800005E08302E64
:1008600053595354454D00FF0000001F1F1F1F1F09
:100870001F1F1F1F1E1E1E1E1E1E1F1F1C1C1C1C9A
:100880001C1C1F1F1818181818181F1F10101010E4
:1008900010101F1F0000000000001F0000000000DB
:1008A0000000000000000053756E004D6F6E005494
:1008B0007565005765640054687500467269005399
:1008C0006174004A414E00464542004D415200418C
:1008D0005052004D4159004A554E004A554C004176
:1008E000554700534550004F4354004E4F56004467
:1008F0004543001F1C1F1E1F1E1F1F1E1F1E1124ED
:100900001FBECFEFD0E1DEBFCDBF11E0A0E0B1E070
:10091000ECE8F2E800E00BBF02C007900D92A833AC
:10092000B107D9F723E0A8E3B1E001C01D92A13AD5
:10093000B207E1F70E94D93C0C9444410C940000AA
:100940000895109238010E9403160E948D0B0E9498
:10095000FF050E94D91E88EC90E00E947D300E9425
:10096000CF120E94C30C0E9487130E94050D0E94A3
:10097000C1180E94611F0C944709089580913801A5
:10098000811108C00E94A11E8823A1F081E08093FC
:10099000380108950E9454090E94A0130E94D7189C
:1009A0000E9488240E94731F0E94C7240E940A216B
:1009B0000C942521089583E080933A0108958CE3F7
:1009C00091E00E940E2E83E080933A0108951F93D8
:1009D000CF93DF93CDB7DEB763970FB6F894DEBF42
:1009E0000FBECDBF182FBE01645F7F4F8CE391E037
:1009F0000E944438BE016F5F7F4F8CE391E00E94FC
:100A000065380E94FB3228E0AE01445F5F4F64E02E
:100A100080E00E94BD322BE0AE014F5F5F4F62E08D
:100A200081E00E94BD32112309F16091390181E01A
:100A3000682760933901E0913B010E2E000CFF0BFB
:100A4000EF5CFE4F8081982F9F70690F82958F70A9
:100A50000E949D320E94F33363960FB6F894DEBF76
:100A60000FBECDBFDF91CF911F9108950E949732A5
:100A7000F1CF80913B018F3F11F410923B018091A7
:100A80003B0181110CC085E080933B0181E08093A4
:100A900039010E94E70482E080933A010895815071
:100AA000F3CF80913B01853064F48F5F80933B01ED
:100AB00081E0809339010E94E70482E080933A014B
:100AC000089510923B01F4CFFF920F931F93CF93A1
:100AD000DF9300D01F92CDB7DEB700913B010F3FEF
:100AE00071F1043061F103300CF00F5FF82E10E06B
:100AF000045C1E4F40E0BE016F5F7F4FF8018081B4
:100B00000E94F43BE091390181E090E08C0F9D1F41
:100B10008E0F911DFC01F082CE0101960E94E73BF1
:100B2000E0913B010E2E000CFF0BE55DFE4F908126
:100B3000981728F0F801808381E00E94E7040F9065
:100B40000F900F90DF91CF911F910F91FF9008951B
:100B500080913B01843071F4809141018C3040F4EC
:100B60008F5F8093410181E0809339010C94E70409
:100B700081E0F7CF08950F931F93CF930E94EF3337
:100B8000C82F882331F0C0E08C2FCF911F910F9197
:100B9000089580913A01811113C084E695E00E9486
:100BA00025070BED14E02FED34E048EA55E069E34A
:100BB00075E081E595E00E94610781E080933A014C
:100BC00080913A01813081F40E94E6368823D9F27F
:100BD0000E944037AB01BC018CE391E00E948A3750
:100BE00080E00E94E704D0CF833069F60E94B70707
:100BF00010923A018FEF80933B01C1E0C5CF8FEF98
:100C000080933B0110923A010895CF93DF93EC015A
:100C10008981811106C0E0914F01F091500180E37C
:100C2000099561E0CE010E94943181E0DF91CF917E
:100C30000895CF93DF93EC018981811106C0E09183
:100C40004F01F091500189E3099561E0CE010E94C6
:100C5000943181E0DF91CF910895CF93DF93EC0140
:100C60008981811106C0E0914F01F091500188E324
:100C7000099561E0CE010E94943181E0DF91CF912E
:100C80000895CF93DF93EC018981811106C0E09133
:100C90004F01F091500187E3099561E0CE010E9478
:100CA000943181E0DF91CF910895CF93DF93EC01F0
:100CB0008981811106C0E0914F01F091500186E3D6
:100CC000099561E0CE010E94943181E0DF91CF91DE
:100CD0000895CF93DF93EC018981811106C0E091E3
:100CE0004F01F091500185E3099561E0CE010E942A
:100CF000943181E0DF91CF910895CF93DF93EC01A0
:100D00008981811106C0E0914F01F091500184E387
:100D1000099561E0CE010E94943181E0DF91CF918D
:100D20000895CF93DF93EC018981811106C0E09192
:100D30004F01F091500183E3099561E0CE010E94DB
:100D4000943181E0DF91CF910895CF93DF93EC014F
:100D50008981811106C0E0914F01F091500182E339
:100D6000099561E0CE010E94943181E0DF91CF913D
:100D70000895CF93DF93EC018981811106C0E09142
:100D80004F01F091500181E3099561E0CE010E948D
:100D9000943181E0DF91CF910895CF93DF93EC01FF
:100DA0008981811107C0E0914301F091440130979E
:100DB00009F0099561E0CE010E94943181E0DF9154
:100DC000CF9108952091470130914801309344011B
:100DD000209343010E94CD0681E0089520914501B2
:100DE0003091460130934401209343010E94CD0687
:100DF00081E0089520914B0130914C0130934401E2
:100E0000209343010E94CD0681E0089520914D0179
:100E100030914E0130934401209343010E94CD064E
:100E200081E00895CF93DF93EC018981811105C0A2
:100E3000E0914901F0914A01099561E0CE010E94DB
:100E4000943181E0DF91CF910895CF93DF93EC014E
:100E500060E089EB96E00E94883061E085EA96E0E8
:100E60000E94883062E081E996E00E94883064E068
:100E70008DE796E00E94883065E089E696E00E9462
:100E8000883066E085E596E00E94883068E081E47D
:100E900096E00E94883069E08DE296E00E948830FA
:100EA0006AE089E196E00E9488306DE085E096E096
:100EB0000E948830D0935001C0934F01DF91CF91B1
:100EC0000895CF92DF92EF92FF920F931F93CF93EB
:100ED000DF936B017A01E901009749F090934E018D
:100EE00080934D0163E086E097E00E948830C11452
:100EF000D10449F0D0924C01C0924B0167E08AEFD7
:100F000096E00E948830E114F10449F0F0924A0121
:100F1000E09249016BE082E197E00E948830011580
:100F2000110549F010934601009345016EE08EEEE5
:100F300096E00E948830209789F0D0934801C093B2
:100F400047016FE082EE96E0DF91CF911F910F9104
:100F5000FF90EF90DF90CF900C948830DF91CF918D
:100F60001F910F91FF90EF90DF90CF900895CF9356
:100F7000C0E06C2F90E080E00E948830CF5FC031ED
:100F8000C1F71092500110924F0110924601109239
:100F90004501109248011092470110924E011092A3
:100FA0004D0110924C0110924B0110924A01109287
:100FB0004901CF910895E62FF0E0EE0FFF1FE453B3
:100FC000FF4F659174910E9419340C94F3332CEC0B
:100FD00030E00C94A13C83E0809351010895CF93BD
:100FE000DF9300D000D000D01F92CDB7DEB70E94B3
:100FF0004037AB01BC01CE0101960E948A371A82AC
:101000001982809152018B83CE0101960E940E3885
:10101000609391037093920380939303909394034E
:10102000809153018B83CE0101960E940E3860930C
:101030009503709396038093970390939803309150
:10104000520120915301321760F060587E4A8E4F52
:101050009F4F6093950370939603809397039093AB
:10106000980382E08093510127960FB6F894DEBF73
:101070000FBECDBFDF91CF9108959091540181E0D3
:1010800089278093540160E0913009F06EE081E09F
:101090000E949D320C94F3330F931F93CF93DF93F1
:1010A00000D000D0CDB7DEB702E511E040E0BE01D0
:1010B0006D5F7F4FF80180810E94F43B40E0BE01EC
:1010C0006F5F7F4FF80181810E94F43B22E0AE0107
:1010D0004D5F5F4F60E081E00E94BD3222E0AE01D3
:1010E0004F5F5F4F6EE081E00E94BD320E94F3339C
:1010F0000F900F900F900F90DF91CF911F910F9154
:101100000895E0915401F0E0EE5AFE4F808188236B
:1011100021F0815080830C944C0887E1FBCFE09153
:101120005401F0E0EE5AFE4F8081873120F48F5F4A
:1011300080830C944C0880E0FBCFFF920F931F93A9
:10114000CF93DF93CDB7DEB72E970FB6F894DEBFFF
:101150000FBECDBF0E94EF33882311F0F12C3DC0AC
:10116000F0905101F11046C00E94FB320BEE17E0E7
:101170002FEE37E04DE358E061E878E08FE898E043
:101180000E9461076AE080E00E94DB0760E081E086
:101190000E949D324091910350919203609193037C
:1011A00070919403CE0108960E948A37409195036E
:1011B000509196036091970370919803CE01019628
:1011C0000E948A378A85809352018B8180935301D4
:1011D0000E944C0881E0809351018F2D2E960FB60E
:1011E000F894DEBF0FBECDBFDF91CF911F910F915D
:1011F000FF90089581E0F81609F4B0CF82E0F8126C
:101200000EC048E061E973E085E090E00E94561D61
:10121000882309F4A3CF83E0809351019FCF83E01B
:10122000F8129CCF0E94B707109251010E9497328A
:1012300010925401FF24F394D0CFCF930E94730CEB
:10124000C82F813039F40E94CB0C0E94A2358C2F1C
:10125000CF91089581E0C23009F080E0C82FF7CF28
:10126000CF93DF93EC018981811109C00E94B707F8
:1012700082E598E00E94F83581E08093550161E0B5
:10128000CE010E94943181E0DF91CF9108950E94B8
:10129000FB320E94B7070E9497320E94F0366CE042
:1012A00080E399E00C948830CF9380915501882396
:1012B00069F00E94F235811109C0CFB7F8940E94FD
:1012C000B9250E94470910925501CFBFCF910895CB
:1012D00084E080935A01089585E080935B0108952E
:1012E00082E080935E0108950F931F9380915E01C9
:1012F000882321F0823001F180E02EC00E949732D5
:101300000E94FB320E94B70700E719E030E020E0BE
:1013100050E040E070E060E090E080E00E94610713
:1013200065E180E00E94DB0766E181E00E94DB0767
:1013300081E080935E01E0CF80915C0190915D013E
:10134000892BD1F20E94B70710925E01E0915C01F7
:10135000F0915D01099581E01F910F910895CF9360
:10136000DF9300D0CDB7DEB790915F01992329F0CC
:101370009130F9F010925F0116C096E099836A836C
:101380002AE0482F62E0CE0101960E94192D81309B
:1013900041F410925F0181E00F900F90DF91CF91A7
:1013A0000895823011F080E0F7CF81E080935F01F3
:1013B000FACF0E9474098111ECCFF5CFCF93DF9360
:1013C00000D0CDB7DEB790915F019130B9F020F039
:1013D000923001F180E019C09BE099836A832AE092
:1013E000482F62E0CE0101960E94192D813019F438
:1013F00080935F01EFCF823069F7FACF0E94A02976
:10140000882341F310925F0181E00F900F90DF91EC
:10141000CF9108950E947409F3CFCF93DF9300D04A
:101420001F92CDB7DEB792E099836A834B832BE09E
:10143000482F63E0CE0101960E94192D9FEF980F6F
:1014400081E0923008F080E00F900F900F90DF91D4
:10145000CF910895DF92EF92FF920F931F93CF9356
:10146000DF93CDB7DEB72C970FB6F894DEBF0FBE73
:10147000CDBFD62E442309F460C0E0915B01E73074
:1014800008F0A8C0B901F82EF0E0E75BF54F0C9426
:101490001F3F500A6A0A7B0ABD0AC40AE20A660AAA
:1014A0008AE0F81204C082E080935B010FC04150D3
:1014B000550B25E0249FC001259F900D112445E088
:1014C000895E954F0E94271D811102C080E036C0C1
:1014D00081E0EACF4150550B29E0249FC001259FB0
:1014E000900D112449E0B8018956934F0E94271DA1
:1014F0008111D9CFEBCFEBE081E0FE1285E089834B
:101500004A8345E0CE0103960E94FF3B44E0B801C8
:10151000CE0108960E94FF3BF80184818C872F2D15
:101520004D2D6CE0CE0101960E94192D813001F500
:10153000FBE0FF1211C010925B0181E02C960FB608
:10154000F894DEBF0FBECDBFDF91CF911F910F91F9
:10155000FF90EF90DF90089583E080935B0142E37A
:1015600050E060E070E086E591E00E940037AECF89
:10157000823009F0ABCF84E097CF86E591E00E94FE
:101580001A378823C1F3A2CFEE20A9F20E94B70731
:101590000CE619E030E020E050E040E070E060E070
:1015A00090E080E00E9461070E9497320E94FB3227
:1015B00065E180E00E94DB0766E181E00E94DB07D5
:1015C00086E072CF0E94A029882309F47FCF0E9471
:1015D000B707B1CF10925B0179CF0F931F93CF93D1
:1015E000DF93CDB7DEB763970FB6F894DEBF0FBEBB
:1015F000CDBF062F442309F48EC0B901182F909156
:101600005A01923009F45BC038F4992371F091309B
:1016100011F110925A0107C0943009F473C008F414
:1016200055C09530B1F780E02EC08A3021F481E0BA
:1016300080935A01F8CF4150550B21E1249FC001FE
:10164000259F900D112441E189569F4F0E94271D2F
:101650008111EDCFE8CF8CE01B3009F08DE089835C
:101660004A8341E1CE0103960E94FF3B212F402F88
:1016700063E1CE0101960E94192D8130D9F41B300F
:1016800069F410925A0163960FB6F894DEBF0FBE4C
:10169000CDBFDF91CF911F910F91089582E080938C
:1016A0005A0142E350E060E070E086E591E00E947C
:1016B0000037B9CF823009F0B6CF83E0B9CF86E5E5
:1016C00091E00E941A378823C1F3ADCF0E94B7077B
:1016D00008E619E030E020E050E040E070E060E033
:1016E00090E080E00E9461070E9497320E94FB32E6
:1016F00065E180E00E94DB0766E181E00E94DB0794
:1017000085E096CF0E94A029882309F48CCF0E94FF
:10171000B70710925A0181E0B6CF10925E01109285
:101720005F0110925D0110925C01089590935D013C
:1017300080935C010895CF93DF9300D0CDB7DEB7DF
:1017400090915F01992329F09130A9F010925F01E7
:1017500010C097E099838A832AE04FEF62E0CE01C0
:1017600001960E94192D8150823018F481E08093F7
:101770005F0180E007C00E94A0298823D1F3109266
:101780005F0181E00F900F90DF91CF9108950F934B
:101790001F93CF93DF93CDB7DEB728970FB6F8949A
:1017A000DEBF0FBECDBF062F10916001111127C003
:1017B00023E02983FC0120852A8321852B8344E0B3
:1017C000BC01CE0104960E94FF3B08872AE04FEF40
:1017D00068E0CE0101960E94192D8150823018F4E4
:1017E00081E080936001812F28960FB6F894DEBFC8
:1017F0000FBECDBFDF91CF911F910F9108950E9431
:10180000A029182F882379F31092600111E0EBCF03
:101810001F93CF93DF931F92CDB7DEB71091600176
:10182000111115C088E089832AE04FEF61E0CE01F5
:1018300001960E94192D8150823018F481E0809326
:101840006001812F0F90DF91CF911F9108950E9429
:10185000A029182F8823A9F31092600111E0F1CF7D
:10186000109261010E94B7071092620108951F93C0
:10187000CF93DF9300D01F92CDB7DEB7009721F052
:101880006817190609F068F5162F0E9497320E9412
:10189000FB326FEF610FCE0101960E945A3C182F68
:1018A00023E0281B41E050E04C0F5D1F480F511D05
:1018B0006BE081E00E94BD326DE58EE1811B0E94EC
:1018C000F93361E080E00E94DB0762E081E00E9482
:1018D000DB0780E00F900F900F90DF91CF911F9169
:1018E000089581E0F7CF0F931F93CF930E94EF33BA
:1018F000C82F882311F0C0E006C0809162018823C0
:1019000039F08130A9F08C2FCF911F910F9108955C
:101910000E94FB3260E080E00E94DB076091610181
:1019200070E083E00E945B1381E080936201EBCF63
:101930000E94DE12C82F813029F4109262011092A9
:101940006101E1CF8230B9F6109262010E94691301
:1019500060E80E94370C811111C01092610100E310
:101960001CE030E020E050E040E070E060E090E01B
:1019700080E00E946107C0936201BDCF0E9469139D
:1019800080936101C0CF10926201109261010895AD
:101990008091610108951092610108958093610121
:1019A0000895809166018F5F80936601082E000C78
:1019B000990B209165012817190609F014F410926B
:1019C000660181E08093630108951092660183E0CF
:1019D0008093630110926401109265010895109242
:1019E00064011092650184E080936301089581E0B1
:1019F0008093630180916601882321F08150809358
:101A00006601089580916501F9CF109265011092E9
:101A1000660110926401109263010895809365013C
:101A2000609366014093640108950F931F93809122
:101A30006301823019F138F4882379F0813001F1A3
:101A40000E94E50C1BC0833051F18430C9F70E941D
:101A5000B7071092630182E029C00E94B70705EE24
:101A60001CE02FEE3CE050E040E067EF7CE081EDD1
:101A70009CE00E94610781E08093630180E016C0D2
:101A80000E94973281E00E94F1326091640180915E
:101A90006601680F81E00E94DB0782E0EDCF0E94C3
:101AA000B707109266011092630181E01F910F91B8
:101AB0000895809166011092660108950E94B7070B
:101AC000109276010895EF920F931F93CF938C019C
:101AD000C62F90917601923009F458C038F49923BA
:101AE000D1F0913091F11092760129C0933009F430
:101AF00062C09430C1F70E94C80CEE24E39408E65B
:101B000011E021E731E0482F6FEF8AE00E942A0AB6
:101B1000811140C014C00E94C80C482F4150550B81
:101B20009A0145E0429FC001439F900D112461E757
:101B300071E0895E954F0E94271D811102C080E0EF
:101B40002CC081E080937601FACF0E94C80CE82F68
:101B5000E150FF0B49E04E9FC0014F9F900D1124B3
:101B600068E671E08956934F0E94271D882339F358
:101B70000E94FB3263E080E00E94DB07F801608195
:101B8000718185E00E945B1382E0DCCF0E94DE124F
:101B9000813041F41092760181E0CF911F910F9135
:101BA000EF900895823059F60E946913F8019183ED
:101BB000808383E0C7CF0E94C80C8150990B49E015
:101BC000489F9001499F300D11248C2F90E0895639
:101BD000934F42E0B801820F931F0E94561D882345
:101BE00009F4ADCF84E0809376018EE59DE00E94FC
:101BF000960BA5CFEF920F931F93CF93DF938C019A
:101C0000C62F0E94EF33D82F882341F0D0E08D2FCC
:101C1000DF91CF911F910F91EF90089590917601F0
:101C2000923009F457C038F49923D1F0913081F102
:101C300010927601ECCF933009F45DC09430C1F777
:101C40000E94C80CEE24E39408E611E021E731E09D
:101C5000482F6FEF8AE00E942A0A81113FC0D6CF39
:101C60000E94C80C482F4150550B9A0145E0429FF5
:101C7000C001439F900D112461E771E0895E954F8B
:101C80000E94271D882311F281E080937601BFCF47
:101C90000E94C80CE82FE150FF0B49E04E9FC001A5
:101CA0004F9F900D112468E671E08956934F0E9472
:101CB000271D882309F4AACF0E94FB3261E380E04C
:101CC0000E94DB074AE2F801608186E00E940E0D67
:101CD00082E0DBCF0E94150D813021F41092760155
:101CE000D1E095CF823009F091CF0E94590DF801D3
:101CF000808383E0CACF0E94C80C8150990B45E0D5
:101D0000489F9001499F300D11248C2F90E0895EEF
:101D1000954F41E0B801820F931F0E94561D882302
:101D200009F474CF84E0B1CF0E94EF33811105C074
:101D300062E08AE691E00C94630D80E008950E94D1
:101D4000EF33811105C060E088E691E00C94630DEB
:101D500080E00895EF920F931F93CF9380917601C7
:101D6000823009F45DC038F4882301F18130E1F15B
:101D7000109276012FC0833009F471C08430C1F70E
:101D8000EE24E39408E611E021E731E04091670199
:101D90006FEF8AE00E942A0A8823E1F01092760110
:101DA000809167010E94CE0CC1E047C00E94C80C20
:101DB000482F4150550B9A0145E0429FC001439F77
:101DC000900D112461E771E0895E954F0E94271DF7
:101DD000811102C0C0E031C081E0809376010E9491
:101DE000C80C80936701F6CF0E94C80C482F415061
:101DF000550B9A0149E0429FC001439F900D112469
:101E000068E671E08956934F0E94271D882311F3DD
:101E100082E080937601809171010E94CE0CDACF2E
:101E20000E94730CC82F813071F40E94CB0C109269
:101E30007601809167010E94CE0C8C2FCF911F916B
:101E40000F91EF900895823029F683E08093760118
:101E50000E94C80C809371010E94CB0CBBCF2091D3
:101E600067012150330B45E0429FC001439F900D15
:101E7000112441E061E771E0895E954F0E94561D93
:101E8000882309F4A7CF84E080937601A3CF61E093
:101E900082E791E00C94FA0D62E083E791E00C9404
:101EA000FA0D63E084E791E00C94FA0DEF920F9342
:101EB0001F93CF93DF930E94EF33C82F882341F005
:101EC000C0E08C2FDF91CF911F910F91EF9008957B
:101ED00080917601823009F45BC038F48823D1F018
:101EE000813081F110927601ECCF833009F467C024
:101EF0008430C1F70E94C80CEE24E39408E611E098
:101F000021E731E0482F6FEF8AE00E942A0A811111
:101F100044C0D6CF0E94C80C482F4150550B9A019F
:101F200045E0429FC001439F900D112461E771E09D
:101F3000895E954F0E94271D882311F281E08093CE
:101F40007601BFCF0E94C80C482F4150550B9A0113
:101F500049E0429FC001439F900D112468E671E063
:101F60008956934F0E94271D882309F4A9CF0E9408
:101F7000FB3260E380E00E94DB0780916C0148E166
:101F800061E0811160E082E00E940E0D82E0D7CF17
:101F90000E94150DD82F813021F410927601C1E0F6
:101FA00090CF823009F08CCF0E94590D811104C06E
:101FB000D0936C0183E0C3CF10926C01FBCF0E94E1
:101FC000C80C482F4150550B9A0149E0429FC0016F
:101FD000439F900D112441E06CE671E08556934FCC
:101FE0000E94561D882309F46BCF84E0A8CFEF929E
:101FF0000F931F93CF930E94EF33C82F882339F09C
:10200000C0E08C2FCF911F910F91EF900895809198
:102010007601823009F45AC038F48823D1F0813037
:1020200081F110927601EDCF833009F464C08430E1
:10203000C1F70E94C80CEE24E39408E611E021E702
:1020400031E0482F6FEF8AE00E942A0A811142C0D6
:10205000D7CF0E94C80C482F4150550B9A0145E03C
:10206000429FC001439F900D112461E771E0895E9A
:10207000954F0E94271D882319F281E080937601F5
:10208000C0CF0E94C80C482F4150550B9A0149E01F
:10209000429FC001439F900D112468E671E089566C
:1020A000934F0E94271D882309F4AACF0E94FB3278
:1020B00062E380E00E94DB076091750166956170C4
:1020C00048E282E00E940E0D82E0D8CF0E94150DFA
:1020D000813021F410927601C1E093CF823009F073
:1020E0008FCF0E94590D9091750180FB91F99093CB
:1020F000750183E0C3CF0E94C80C482F4150550B97
:102100009A0145E0429FC001439F900D112441E098
:1021100065E771E0855E954F0E94561D882309F49E
:102120006FCF84E0ABCFEF920F931F93CF930E94BA
:10213000EF33C82F882339F0C0E08C2FCF911F9147
:102140000F91EF90089580917601823009F459C083
:1021500038F48823D1F0813081F110927601EDCFEF
:10216000833009F463C08430C1F70E94C80CEE24A8
:10217000E39408E611E021E731E0482F6FEF8AE0B1
:102180000E942A0A811141C0D7CF0E94C80C482F53
:102190004150550B9A0145E0429FC001439F900D6D
:1021A000112461E771E0895E954F0E94271D882305
:1021B00019F281E080937601C0CF0E94C80C482FAD
:1021C0004150550B9A0149E0429FC001439F900D39
:1021D000112468E671E08956934F0E94271D8823D9
:1021E00009F4AACF0E94FB3263E380E00E94DB0780
:1021F00060917501617048E282E00E940E0D82E0FC
:10220000D9CF0E94150D813021F410927601C1E0E2
:1022100094CF823009F090CF0E94590D90917501B2
:1022200080FB90F99093750183E0C4CF0E94C80CA5
:10223000482F4150550B9A0145E0429FC001439FF2
:10224000900D112441E065E771E0855E954F0E9495
:10225000561D882309F470CF84E0ACCFEF920F9322
:102260001F93CF930E94EF33C82F882339F0C0E02B
:102270008C2FCF911F910F91EF900895809176014F
:10228000823009F44DC038F4882369F0813019F1A7
:1022900010927601EDCF843009F494C008F47AC02E
:1022A000853031F3F5CF0E94C80C482F4150550BB3
:1022B0009A0145E0429FC001439F900D112461E7C0
:1022C00071E0895E954F0E94271D882381F281E08D
:1022D00080937601CDCF0E94C80C482F4150550BFA
:1022E0009A0149E0429FC001439F900D112468E686
:1022F00071E08956934F0E94271D882309F4B7CFB8
:102300000E94FB3264E380E00E94DB07609175016C
:102310006695669570E082E00E945B1382E0D8CFFC
:102320000E94DE12813021F410927601C1E0A0CF2C
:10233000823009F09CCF0E9466136CE390E00E940B
:10234000370C81111AC085E0809376010E94FB3220
:1023500069E380E00E94DB076AE381E00E94DB071B
:102360000EE51DE030E020E050E040E070E060E08D
:1023700090E080E00E9461077BCF0E946613982F57
:10238000990F990F809175018370892B8093750146
:1023900083E09ECF0E94C80C482F4150550B9A01F4
:1023A00045E0429FC001439F900D112441E065E745
:1023B00071E0855E954F0E94561D882309F457CF22
:1023C00084E086CF0E94C80CEE24E39408E611E076
:1023D00021E731E0482F6FEF8AE00E942A0A81113D
:1023E000A3CF45CF83E080937D01089580917B0149
:1023F00090917C01009721F48091790190917A016C
:1024000090937F0180937E0182E080937D01089507
:102410001F93CF93DF9300D000D01F92CDB7DEB7CC
:10242000182F9091780180917701981730F01092D1
:10243000780110927C0110927B0181E00E94F132C0
:1024400080917B0190917C012AE0289FB001299F17
:10245000700D112460537109610F711D70937C011F
:1024600060937B01CE0101960E94143C25E0281B5D
:1024700041E050E04C0F5D1F480F511D60E081E0CE
:102480000E94BD32609178016F5F6093780181E0B6
:102490000E949D320E94F3330F900F900F900F9087
:1024A0000F90DF91CF911F910895CF93DF9300D0CC
:1024B00000D01F92CDB7DEB781E00E94F13280914B
:1024C0007B0190917C01009771F16AE070E00E94BD
:1024D000D53E70937C0160937B01CE0101960E94F2
:1024E000143C25E0281B41E050E04C0F5D1F480FD5
:1024F000511D60E081E00E94BD3280917801882307
:1025000019F08150809378016091780181E00E94F8
:102510009D320E94F3330F900F900F900F900F9009
:10252000DF91CF91089560E380E10E94F933ECCF11
:1025300080917B0190917C01892BB9F060917801A9
:10254000662341F061506093780181E00E949D32E2
:102550000C94F33360E081E00E949D320E94F333DB
:1025600080917701815080937801089580917B015B
:1025700090917C01892B91F0809178018F5F8093FD
:10258000780190917701891710F01092780160918D
:10259000780181E00E949D320C94F33308951092EB
:1025A0007C0110927B011092780110927F011092B1
:1025B0007E0110927D011092770108950F931F9371
:1025C000CF93DF9300D000D01F92CDB7DEB78091BC
:1025D0007D01813009F444C048F0823009F442C0E2
:1025E000833009F456C010927D013AC045E060E3A3
:1025F000CE0101960E940B3C0E94B70702EF11E149
:1026000026EF31E145E552E168E972E186EB92E1BE
:102610000E94610788E092E10E94250781E00E9404
:10262000F1326091790170917A01CE0101960E9498
:10263000143C25E0281B41E050E04C0F5D1F480F83
:10264000511D60E081E00E94BD321092780160E08F
:1026500081E00E949D320E94F33381E080937D01EE
:1026600080E00DC00E94B70710927D0110927C019E
:1026700010927B01109277011092780182E00F9006
:102680000F900F900F900F90DF91CF911F910F91AE
:1026900008950E94B70710927D0110927C0110925C
:1026A0007B0110927F0110927E01109277011092AF
:1026B000780181E0E4CF10927C0110927B0170934D
:1026C0007A016093790180937701089580917E016A
:1026D000089580917E0190917F010895CF93DF93BB
:1026E000EC01BC016D5F7F4F44E081E891E00E9406
:1026F000FF3BBE01675F7F4F46E085E891E00E94A7
:10270000FF3B81E080938001DF91CF9108958EE6B9
:1027100093E10E948D2D4BE060E080E891E00C9405
:102720000B3C81E0409181015091820160918301D5
:1027300070918401452B462B472B09F480E00895C6
:10274000809180018823B9F04AE061E871E08DE072
:1027500090E00E94561D882371F0409181015091B4
:1027600082016091830170918401809189010E94AE
:1027700088291092800108954AE0BC0181E891E027
:102780000E94FF3BE0E8F1E0418152816381748166
:1027900081850E94882981E00C94922DCF92DF924E
:1027A000EF92FF920F931F93CF93DF93CDB7DEB7D6
:1027B00062970FB6F894DEBF0FBECDBF6C01162F27
:1027C0001A8A0E94EF33F82E8111A8C113501730D6
:1027D00068F4E12FF0E0E151FC4E0C941F3F12141D
:1027E0001F14AF14321548155C15871581E08983D5
:1027F00040E160E0CE0102960E940B3C8A8181603C
:102800008A8321E12C9DC0012D9D900D112441E171
:10281000BE016F5F7F4F89569F4F0E94561D8823D0
:10282000C1F19AC081E089831A82C601880F991F7D
:1028300042E0BE016F5F7F4F895E964FEECF9C2DC9
:102840008091AA018130A9F148F0823009F463C077
:10285000833009F479C01092AA011BC011E01093D3
:10286000A50185E08093A6011093A70192E09093C3
:10287000A80196E19093A901C89EC001112445E0EA
:1028800065EA71E0895E954F0E94561D8111109393
:10289000AA018F2D62960FB6F894DEBF0FBECDBF92
:1028A000DF91CF911F910F91FF90EF90DF90CF902C
:1028B000089529E0C29E6001112489E6C81A83EFB9
:1028C000D80A21E030E030939F0120939E0125E655
:1028D00030E030939D0120939C01911119C082E05A
:1028E0008093A0010E9440376093A1017093A201E0
:1028F0008093A3019093A40149E06CE971E0C601C3
:102900000E94561D882329F282E08093AA01C1CF3C
:102910001092A001E7CFE12C0CE911E025EA31E0AB
:102920004C2D6FEF8AE00E942A0A882309F4B1CF68
:1029300083E08093AA0144E650E060E070E08BEA17
:1029400091E00E940037A5CF8BEA91E00E941A37F0
:1029500081119FCF1092AA01FF24F3949ACF809106
:102960009B01823009F45CC038F4882399F08130EF
:10297000A1F110929B018DCF833009F461C08430A6
:10298000C1F78BEA91E00E941A37811182CF109231
:102990009B01E2CF29E0C29EC001112449E062E917
:1029A00071E08956934F0E94271D882309F471CF47
:1029B00080919601882381F282E0809396010E94A3
:1029C0004037609397017093980180939901909399
:1029D0009A0181E080939B015CCF29E0C29EC001F7
:1029E000112449E062E971E08956934F0E94561D17
:1029F000882309F44ECF81E08C0D89871A86DFB6D3
:102A0000F89409811A812B813C814D815E816F810F
:102A1000788589859A850E94D621DFBE82E0DACF4B
:102A200025E0C29EC001112445E06DE871E0895E99
:102A3000954F0E94271D882309F42BCF83E0CACF2E
:102A400041E04C0DE12C02E911E02DE831E06FEF9F
:102A50008AE00E942A0A882309F41BCF84E080932D
:102A60009B0169CF198282E08A830E9440376B8381
:102A70007C838D839E8326E02C9DC0012D9D900D2F
:102A8000112446E0BE016F5F7F4F895E9E4EC5CE2A
:102A90004AE060E0CE0101960E940B3C4AE0BE0194
:102AA0006F5F7F4F8DE090E00E94561D882309F4F0
:102AB000F0CE0E94871350CF0E944037AB01BC017B
:102AC000CE0101960E948A371A8219821B82CE019A
:102AD00001960E940E386093910370939203809345
:102AE00093039093940387E18B83CE0101960E9418
:102AF0000E38609395037093960380939703909399
:102B0000980348E061E973E085E090E086CE41E01B
:102B1000BE016E5E7F4FC60147967FCEF12CB9CEC7
:102B2000CF92DF92EF92FF920F931F93CF93DF9399
:102B3000CDB7DEB760970FB6F894DEBF0FBECDBF3E
:102B40008C018091B1019091B2018017910708F03A
:102B500054C0F62E0E94CE13882309F43FC0C090C3
:102B6000B101D090B2018FEFC81AD80AD092B20149
:102B7000C092B10140E160E2CE0101960E940B3C9F
:102B80000E94FB3230E020E0B60190E080E044E6B5
:102B9000C42EE12C40E00E944C3B182F85E2888B2C
:102BA00045E04F0D60E0CE0101960E94E70740E04E
:102BB000BE01625F7F4F812F0E94F43B41E064E6DB
:102BC000812F0E942E3420E1AE014F5F5F4F60E005
:102BD00080E00E94BD320E94F33380E060960FB621
:102BE000F894DEBF0FBECDBFDF91CF911F910F9143
:102BF000FF90EF90DF90CF9008951092B201109265
:102C0000B10181E0EBCF1092B2011092B1011092AC
:102C1000B001089562E080E890E00E94901591E094
:102C2000811101C090E0892F0895CF93C091B00128
:102C3000C1110DC00E94241D823079F0813021F035
:102C4000C0E08C2FCF9108958093B001FACF0E94FD
:102C50000A168823A9F31092B001C1E0F2CF63E015
:102C600080E890E00E94901591E0811101C090E011
:102C7000892F0895CF93C091B001C1110DC00E945A
:102C8000241D823079F0813021F0C0E08C2FCF916B
:102C900008958093B001FACF0E942F168823A9F3DC
:102CA0001092B001C1E0F2CF64E080E890E00E94B1
:102CB000901591E0811101C090E0892F0895CF9384
:102CC000C091B001C1110DC00E94241D823079F065
:102CD000813021F0C0E08C2FCF9108958093B00116
:102CE000FACF0E9454168823A9F31092B001C1E0D4
:102CF000F2CF65E080E890E00E94901591E08111AC
:102D000001C090E0892F0895CF93C091B001C11107
:102D100011C00E94241D823099F0813021F0C0E062
:102D20008C2FCF9108958093B0011092B201109230
:102D3000B101F6CF0E947916882389F31092B00171
:102D4000C1E0EECF66E08CE792E00E94901591E042
:102D5000811101C090E0892F0895CF93C091B001F7
:102D6000C1110DC00E94241D823079F0813021F004
:102D7000C0E08C2FCF9108958093B001FACF0E94CC
:102D8000A2168823A9F31092B001C1E0F2CF69E046
:102D900080E890E00E94901591E0811101C090E0E0
:102DA000892F089568E090E080E00E94CE1391E0C2
:102DB000811101C090E0892F0895CF93C091B00197
:102DC000C1110DC00E94241D8230D1F1813011F05B
:102DD000C0E002C08093B0018C2FCF910895809104
:102DE0008C01813021F128F08230A9F110928C0100
:102DF000EFCF41E06BE871E083E090E00E94271D97
:102E0000882331F3C1E0C0938C010E94FB3266E25B
:102E100080E00E94DB0780918B018111C0938B01C0
:102E200044E260918B0182E00E940E0DD1CF0E949E
:102E3000150DC82F813031F410928C011092B00121
:102E4000C1E0CACF823021F60E94590D80938B01D8
:102E5000C0938C01BDCF41E06BE871E083E090E06E
:102E60000E94561D882309F4B3CF81E090918B0115
:102E7000911101C080E08093AF01DECF8091AF015E
:102E800008958093AF0108951092B7011092B80190
:102E90000895FF920F931F93CF93DF93CDB7DEB7C3
:102EA00062970FB6F894DEBF0FBECDBF0E94EF331E
:102EB000F82E882371F0F12C8F2D62960FB6F894BE
:102EC000DEBF0FBECDBFDF91CF911F910F91FF905D
:102ED0000895E091B801E83078F7F0E0EE58F84E48
:102EE0000C941F3F7A17B217E4175C17F8171D18D8
:102EF000281839180E94FB320E940C2D6FEF680FC2
:102F0000CE0140960E945A3C082F47E160E0CE0176
:102F100001960E94E707182F43E0401B60E170E034
:102F20006C0F7D1F600F711D81E090E08C0F9D1F65
:102F3000810F911D0E94FF3B23E0210F201BAE015A
:102F40004F5F5F4F60E080E00E94BD326091B7014B
:102F500070E083E00E945B130E94F33381E0809372
:102F6000B801AACF0E94DE12182F813029F41092E6
:102F7000B801FF24F394A0CF823009F09CCF0E94C7
:102F80000C2D082F0E946913602F0E94370C8111AD
:102F900010C083E08093B80104E417E130E020E042
:102FA00050E040E070E060E090E080E00E94610767
:102FB00082CF0E9469138093B70184E497E10E9455
:102FC000960B1093B80178CF60E08091B7010E9412
:102FD000AF09882309F46FCF84E08093B80144E6F9
:102FE00050E060E070E083EB91E00E94003764CF36
:102FF00083EB91E00E941A37F82E81115CCF0E947A
:10300000B70704E417E130E020E050E040E070E072
:1030100060E090E080E00E94610783E08093B80167
:103020000E9497320E94FB3265E180E00E94DB073C
:1030300066E181E00E94DB073FCF0E94730C813084
:1030400011F487E08CCF823009F035CF86E087CF4E
:103050000E94C80C682F8091B7010E94DE09882366
:1030600009F429CF1092B8010E94CB0C1092B7013D
:1030700080CF61E08091B7010E94AF09882309F4F5
:103080001ACF1092B7010E94CB0C1092B80114CF46
:103090000E94CE0C85E08093B8010895F9018081EB
:1030A0008A3029F481810E94481881E008958B308C
:1030B00029F40E94A0290E946C09F7CF8D30A9F74E
:1030C0000E94A0290E946809F0CF0F931F93CF930D
:1030D000DF93F9018091DA01C0E081110EC0C08157
:1030E000C13089F48181181614F0C1E006C06093E4
:1030F000D9018093D801C093DA018C2FDF91CF9151
:103100001F910F910895C23039F5818118166CF71F
:103110008901D62F0E943E17882339F3D093D90115
:10312000F80181818093D80182818093D301B80115
:103130006D5F7F4F44E08FEC91E00E94FF3B0E9467
:1031400040376093D4017093D5018093D60190935A
:10315000D701C093DA01C9CFCC3049F46093D901CB
:1031600081818093D80184E08093DA01BECFCE3094
:1031700009F0BBCF6093D90181818093D80185E0AC
:10318000F3CF1092DA018EE498E10E94142D85E6C7
:1031900098E10C940F2D9CEF980F923020F0863020
:1031A00021F080E0089581E0089582E00895EF9293
:1031B000FF920F931F93CF93DF93CDB7DEB72A977C
:1031C0000FB6F894DEBF0FBECDBF8091DA0182301A
:1031D00051F138F4882359F08130B1F01092DA01BE
:1031E00006C0843009F46FC0A0F18530B9F72A9683
:1031F0000FB6F894DEBF0FBECDBFDF91CF911F9108
:103200000F91FF90EF900895E12C0FEC11E02AEC64
:1032100031E04091D8016091D9018BE00E942A0AE7
:10322000882329F3DBCF2091D8012150330B49E0CB
:10323000429FC001439F900D11246FEC71E08956AD
:10324000934F0E94561D882391F283E08093DA0108
:10325000CECF4091D3016091D8018091D9010E94D5
:103260000D0A882321F28091D80189878091D301AA
:103270000E94CB188A878091CF019091D0019A83C8
:1032800089838091D1019091D2019C838B8380911D
:10329000D4019091D501A091D601B091D7018D8331
:1032A0009E83AF83B887FFB6F89409811A812B817A
:1032B0003C814D815E816F81788589859A850E94E8
:1032C000D621FFBE8BCF29EB31E04091D801609130
:1032D000D9018BE00E94ED0AA3CF0E94B70710929C
:1032E000ED010895CF93DF930E94EF33C82F882319
:1032F00029F0C0E08C2FDF91CF9108958091ED01EE
:10330000813079F148F0823009F442C0833009F409
:1033100059C01092ED01EECF0E94C80C482F4150C9
:10332000550B9A0141E1429FC001439F900D11242A
:103330006CED71E089569F4F0E94271D8823C9F2CA
:1033400081E08093ED010E94FB3268E380E00E94FF
:10335000DB076091DC01617041E282E00E940E0DAA
:10336000C9CF0E94150DD82F813021F41092ED01A4
:10337000C1E0C0CF823009F0BCCF0E94590D9091BE
:10338000DC0180FB90F99093DC01D093ED01B2CF8A
:103390000E94C80C482F4150550B9A0141E1429FB1
:1033A000C001439F900D112441E06CED71E08956FE
:1033B0009F4F0E94561D882309F49BCF83E0809382
:1033C000ED0198CF0E94C80C2CED31E0482F6FEF33
:1033D0008AE00E94ED0A8111C9CF8BCF0F931F9312
:1033E000CF93DF930E94EF33C82F882339F0C0E0DA
:1033F0008C2FDF91CF911F910F9108958091ED0156
:10340000823009F487C038F48823B9F08130C1F1E3
:103410001092ED01EDCF843009F4B4C048F385304B
:10342000B9F70E94C80C2CED31E0482F6FEF8AE00D
:103430000E94ED0A811129C0DACF0E94C80C482FE2
:103440004150550B9A0141E1429FC001439F900DAD
:1034500011246CED71E089569F4F0E94271D88232F
:1034600031F281E08093ED0170E060E083E00E9442
:103470005B130E94FB3263E280E00E94DB07B8CF5F
:103480000E94DE12D82F813021F41092ED01C1E0AC
:10349000AFCF823009F0ABCF0E94661360E890E0B6
:1034A0000E94370C81111AC083E08093ED010E94C5
:1034B000FB326BE380E00E94DB076CE381E00E945B
:1034C000DB070DE619E130E020E050E040E070E07D
:1034D00060E090E080E00E9461078ACF0E9466135E
:1034E00081508093DB01E82FE695E695E695F0E0C4
:1034F000E452FE4F618170E0877002C07595679558
:103500008A95E2F7617044E482E00E940E0DD09348
:10351000ED016ECF0E94150D813009F4B6CF8230D7
:1035200009F065CF0E94590D9091DB01E92FE695D6
:10353000E695E695F0E0E452FE4F292F27708823A8
:1035400091F081E090E0A0E0B0E004C0880F991F06
:10355000AA1FBB1F2A95D2F72181822B818384E089
:103560008093ED0145CF81E090E0A0E0B0E004C0A1
:10357000880F991FAA1FBB1F2A95D2F780959181AA
:103580008923ECCF0E94C80C482F4150550B9A015B
:1035900041E1429FC001439F900D11246CED71E009
:1035A00089569F4F0E94561D882309F420CF85E03D
:1035B000D7CFCF93DF930E94EF33C82F882329F012
:1035C000C0E08C2FDF91CF9108958091ED01813083
:1035D00081F148F0823009F443C0833009F45AC0C5
:1035E0001092ED01EECF0E94C80C482F4150550BB0
:1035F0009A0141E1429FC001439F900D11246CED5F
:1036000071E089569F4F0E94271D8823C9F281E0EF
:103610008093ED010E94FB3267E380E00E94DB07AC
:103620006091DC016695617048E282E00E940E0DB7
:10363000C8CF0E94150DD82F813021F41092ED01D2
:10364000C1E0BFCF823009F0BBCF0E94590D9091ED
:10365000DC0180FB91F99093DC01D093ED01B1CFB7
:103660000E94C80C482F4150550B9A0141E1429FDE
:10367000C001439F900D112441E06CED71E088562C
:103680009F4F0E94561D882309F49ACF83E08093B0
:10369000ED0197CF0E94C80C2CED31E0482F6FEF61
:1036A0008AE00E94ED0A8111C9CF8ACF83E080931E
:1036B000FA01089582E08093FA0108951092FA01C8
:1036C00008950F931F931092F5018FEF80930A01D5
:1036D0001092F4011092F2011092F30144E060E3C1
:1036E00086EF91E00E940B3C0E94FB326FE380E08A
:1036F0000E94DB070E94B70706E51BE12AE53BE1D4
:1037000050E040E070E060E08BE19DE10E946107E5
:1037100085E09DE10E94250781E08093FA011F91D9
:103720000F910895AF92BF92CF92DF92EF92FF92E6
:103730000F931F93CF93DF93CDB7DEB72E970FB6BE
:10374000F894DEBF0FBECDBFE82E0E94EF33F82EF7
:10375000882311F0F12C0BC08091FA018130E1F047
:10376000C0F0823009F489C0833009F412C18F2D72
:103770002E960FB6F894DEBF0FBECDBFDF91CF916E
:103780001F910F91FF90EF90DF90CF90BF90AF907F
:1037900008950E94611BEBCF0E94EF338111DACFB5
:1037A0008091F301823089F1833009F453C0813074
:1037B000F1F68EEE91E00E941A37F82E8111CACFF1
:1037C0002091F2013091F501822F90E0830F911D3D
:1037D00037FD9A9564E070E00E94E93EAC014A50E2
:1037E0005E4F66E0620F21E081E00E94BD320E94E0
:1037F000F33346E950E060E070E08EEE91E00E9425
:10380000003782E08093F301B2CF8EEE91E00E9408
:103810001A37F82E81119ECF8AE289836091F201D6
:103820006A5F21E0AE014F5F5F4F81E00E94BD32D1
:1038300041E050E060E070E08EEE91E00E940037E1
:103840000E94F3338091F2018F5F8093F201109216
:10385000F3018DCF8091F201843058F044E060E3B1
:1038600086EF91E00E940B3C81E00E94F1321092C1
:10387000F20181E08093F3016DCF9091F401E6EFC6
:10388000F1E080E010E000E02AE098134BC00E94D5
:103890004037AB01BC01CE0101960E948A376B8193
:1038A000E11001C06D81CE010C960E945A3CB82EE9
:1038B00083E0A82EAB186E0188E0C80ED11C4A2DFB
:1038C0006CE070E06C0F7D1F6B0D711DC6010E94D6
:1038D000FF3B6D81E11001C06E81CE010C960E940C
:1038E0005A3CE82E43E0481B6CE070E06C0F7D1FF3
:1038F000680F711DC6018A0D911D0E94FF3B26E0D5
:103900002B192E19F60190E080E04AE03E2F3C1979
:103910003217A0F008171907E1F41092FA01FF24FA
:10392000F39425CF209FA001219F500D11240191D8
:103930000053040F152F111D8F5FA7CF489FB001B3
:10394000499F700D112481918053860F972F911DEF
:10395000DDCF0E94FB3260E480E00E94DB0761E47F
:1039600081E00E94DB070E94B7070EE51BE130E013
:1039700020E050E040E070E060E090E080E00E94F5
:10398000610785E09DE10E94250784E08093FA01AC
:10399000EECE1092FA0182E0F82EE110E8CE0E94FD
:1039A000A235BDCF382F2091F401243098F48091B6
:1039B0000A01082E000C990B019664E070E00E9449
:1039C000E93E80930A018A509E4FFC0130832F5FAD
:1039D0002093F40108952091F40130E0222399F01E
:1039E0008091F501082E000C990BFC01EA50FE4F66
:1039F0003081019664E070E00E94E93E8093F50119
:103A000021502093F401832F0895CF93C82F8091E4
:103A1000FA01843011F40E94611B8091F40184301A
:103A200011F40E94EB1C8C2F0E94D21C83E0809327
:103A3000F301CF9108950E94EB1C83E08093F30182
:103A4000089580E00C94921B81E00C94921BEF92FD
:103A5000FF920F931F93CF93DF938C017B01D42FA1
:103A60000E94632EC82F882389F0C091FD01CC23CA
:103A7000A9F08EEF91E00E94512F4D2F6EEF71E073
:103A8000C7010E94FF3B1092FD01C1E08C2FDF9126
:103A9000CF911F910F91FF90EF9008956D2FC80166
:103AA0000E94702E81E08093FD01F0CFEF92FF9293
:103AB0000F931F93CF93DF938C017B01D42F0E9430
:103AC000632EC82F882339F0C091FC01CC2359F014
:103AD0001092FC01C1E08C2FDF91CF911F910F91CB
:103AE000FF90EF9008954D2FB7018EEF91E00E9467
:103AF000FF3B4D2F6EEF71E0C8010E946A2E81E0FE
:103B00008093FC01E8CFFF920F931F93CF93DF9335
:103B1000CDB7DEB72A970FB6F894DEBF0FBECDBF84
:103B2000E091FB01E03108F009C1F0E0E656F24E09
:103B30000C941F3FAA1DB61DBC1DC21DC81DCE1D65
:103B4000D41DD61DDC1DF11DFB1D071E1E1E2A1EC9
:103B5000311E451E0E94241D823021F48AE080938C
:103B6000FB0102C08130D9F380E0DCC00E940A165C
:103B70008823D1F382E0F3CF0E942F168823A1F38C
:103B800083E0EDCF0E945416882371F384E0E7CFE1
:103B90000E947916882341F385E0E1CF0E94A216A6
:103BA000882311F386E0DBCF87E0D9CF0E94D216BD
:103BB0008823D1F288E0D3CF0E94C7168823A1F2D0
:103BC00083E28093FE0181E18093FF0186E9809387
:103BD00000020E94FB326FE080E00E94DB0789E078
:103BE000BECF43E06EEF71E090E080E00E94561D92
:103BF0008111B4CFB9CF48E061E973E085E090E08E
:103C00000E94271D882309F4AFCF8BE0A8CF4AE09C
:103C10006EEF71E08DE090E00E94271D882309F48B
:103C2000A3CF4AE06EEF71E0CE0101960E94FF3B08
:103C3000CE0101960E94BC138CE091CF40E16EEF63
:103C400071E087E190E00E94271D882309F48CCF62
:103C50008DE085CF0E94FD20882309F485CF8EE07A
:103C60007ECF41E06EEF71E083E090E00E94271D7F
:103C7000882309F479CF8091FE01811104C00E944C
:103C800041178FE06CCF81E0FACF8091130287FD5E
:103C900044C029E0829FC001112449E06EEF71E029
:103CA0008956934F0E94271D882309F45DCF809188
:103CB0000202982F9D7F59F1909113029F5F99877F
:103CC0000E94CB188A8742E06EEF71E0CE01019628
:103CD0000E94FF3B42E060E072E0CE0103960E944A
:103CE000FF3B44E063E072E0CE0105960E94FF3B9B
:103CF000FFB6F89409811A812B813C814D815E8148
:103D00006F81788589859A850E94D621FFBE809132
:103D100013028F5F8093130227CF10921302109229
:103D2000FB0181E02A960FB6F894DEBF0FBECDBF2F
:103D3000DF91CF911F910F91FF9008951092FB0199
:103D400013CFCF93C0911202C11127C043E06EEF91
:103D500071E090E080E00E94271D811104C0C0E066
:103D60008C2FCF9108958091FE01833279F4809158
:103D7000FF01813159F480910002863939F48AE0DB
:103D80008093FB0181E080931202EACF67E280E03A
:103D90000E94DB071092FB01F5CF0E94EF338111E7
:103DA000DECF0E94831D8823D1F210921202C1E05F
:103DB000D7CF109212021092FD011092FC011092C6
:103DC000FB0108950E94EF33811102C00C94831D02
:103DD00080E008951092250280912202833019F02C
:103DE00081E080932202089580912202833019F0AD
:103DF00081E08093210208950F931F93CF93DF9367
:103E0000CDB7DEB72A970FB6F894DEBF0FBECDBF91
:103E100009831A832B833C834D835E836F8378876A
:103E200089879A878AE0FE013196A4E1B2E0019089
:103E30000D928A95E1F72A960FB6F894DEBF0FBE71
:103E4000CDBFDF91CF911F910F9108950F931F93D5
:103E5000CF93C82F10921F0210921E02809320024F
:103E600040E060E08BE390E40E94EB380E94B925CB
:103E70000E94F235811121C08091210281111DC063
:103E8000CC23B1F00E94B7070AEE1EE130E020E03B
:103E900050E040E070E060E084EF9EE10E94610746
:103EA0006CE080E399E0CF911F910F910C948830E2
:103EB000CF911F910F910C944709CF911F910F91B2
:103EC00008951092200210921E0210921F028091FB
:103ED00024028093250240E160E286E292E00E94A3
:103EE0000B3C0C94B925CF93DF93CDB7DEB7C85503
:103EF000D1090FB6F894DEBF0FBECDBF809120026E
:103F0000813009F472C048F0823009F4A1C08430D5
:103F100009F4E8C01092200212C00E94F23581110B
:103F20000EC00E949113811114C00E94FB3262E402
:103F300080E00E94DB0763E481E00E94DB07C85A4F
:103F4000DF4F0FB6F894DEBF0FBECDBFDF91CF912C
:103F500008950E943E17811108C00E94FB326FE154
:103F600080E00E94DB0760E2E7CF0E94EF3381111F
:103F7000E6CF0E94E636882311F30E944037AB015A
:103F8000BC01CE018E5A9F4F0E948A37BE016E5BE4
:103F90007F4FCE018E5A9F4F0E94923841E460E2DB
:103FA000CE0101960E940B3C20E1AE014E5B5F4FBB
:103FB00060E080E00E94BD3241E160E0CE01019608
:103FC0000E94E70720E1482FBE016F5F7F4F86E226
:103FD00092E00E949B3B20E146E252E060E081E0FB
:103FE0000E94BD320E94F333AACF90911E0291111C
:103FF0001FC080931E0221E048EB5BE068EB7BE092
:1040000084E192E00E94B52440E060E08BE390E41C
:104010000E94EB3880912502882309F490CF2CE28E
:1040200031E043E068EE73E080E00E94D53887CF4E
:104030000E94B625811183CF40E060E08BE390E4DD
:104040000E94EB3810921E0281E080931F0277CF0E
:1040500080911E02813029F128F0823049F31092BC
:104060001E026DCF22E041EE50E062EC71E084E18F
:1040700092E00E94B52440E060E08BE390E40E946F
:10408000EB3880912502882341F028EC30E043E0B2
:1040900060E971E080E00E94D53881E080931E02E3
:1040A0004ECF0E94B62581114ACF40E060E08BE3FD
:1040B00090E40E94EB3821E044E358E064E378E0C8
:1040C00084E192E00E94B52480912502882341F08A
:1040D00028EC30E043E060E971E080E00E94D538F0
:1040E00082E0DCCF80911E0281110DC081E08093BF
:1040F0001E0222E04AEF50E064EF71E084E192E0BA
:104100000E94B5241CCF0E94B625811118CF40E033
:1041100060E08BE390E40E94EB3810921E028091E5
:104120001D02809320020BCF80911F02882319F07B
:1041300010921F0281E0089580912102089510924B
:10414000220280912402882319F081E080932502C5
:10415000089580912302813089F038F0823039F15E
:104160008330D1F11092230207C00E94241D8230B7
:1041700009F441C0813069F180E0089541E064E2D2
:1041800072E084E090E00E94271D8823A9F382E07A
:10419000809323020E94FB3262E380E00E94DB07EF
:1041A00048E26091240282E00E940E0DE5CF0E9459
:1041B000150D813019F41092230208958230E1F632
:1041C0000E94590D91E0811101C090E0909324026A
:1041D00083E080932302D0CF41E064E272E084E088
:1041E00090E00E94561D882339F28091240280932A
:1041F00025021092230281E0089541E064E272E01A
:1042000084E090E00E94271D91E0811101C090E0C0
:10421000892F089580912202813031F0A8F08230F8
:1042200059F0833079F408950E94A524882361F021
:1042300082E08093220208950E94A924882321F01D
:1042400083E0F7CF109222020895809121028130FD
:1042500041F050F18230D1F0833001F1109221020F
:1042600023C00E94730C813061F440E060E08BE376
:1042700090E40E94EB380E94B925109221020C9420
:10428000CB0C823089F48093210208950E94C80CDF
:104290000E94B124882341F083E0F5CF0E94C80C2E
:1042A0000E94AD248111E1CF0895FC018FB7F894ED
:1042B000A281B3811A962D913C91338322838FBFC3
:1042C00082819381892B61F42FB7F8948081918149
:1042D000938382839583848381E081872FBF0895B0
:1042E00082E0818708950F931F93CF93DF93EC01B2
:1042F0008985813099F038F0823081F1833009F47A
:1043000049C0198606C0888199819B838A8382E08F
:104310008987DF91CF911F910F91089561E08C8182
:104320009D810E94C70B8823A1F383E08987EC81DC
:10433000FD81008111812281338144815581668113
:104340007781808591850E94FC1EEC81FD818185AD
:10435000DF91CF911F910F910C94261F60E08A810D
:104360009B810E94C70B8823A1F2EA81FB81008117
:1043700011812281338144815581668177818085D5
:1043800091850E94FC1EEA81FB8181850E94261F87
:1043900083E0BECF0E949420882309F4BACFCE01D7
:1043A000DF91CF911F910F910C9455214F925F9205
:1043B0007F928F929F92AF92BF92CF92DF92EF92B5
:1043C000FF920F931F93CF93DF93CDB7DEB72A975A
:1043D0000FB6F894DEBF0FBECDBF09831A832B83BF
:1043E0003C834D835E836F83788789879A87782E95
:1043F000192F0E943E17882309F4DAC0111176C0E4
:10440000E0913902F0913A02B0E0A0E0309709F46F
:1044100095C1208582859385271131C0109791F52C
:104420008093390290933A02CF010E94E63F809137
:10443000410281508093410280914C02909141024F
:10444000811181C1911182C181E08093380280E0A5
:104450002A960FB6F894DEBF0FBECDBFDF91CF9185
:104460001F910F91FF90EF90DF90CF90BF90AF9092
:104470009F908F907F905F904F900C94261FDF014C
:10448000FC01C4CF1A968C931A971B969C93CCCFA1
:10449000FD01DC01109781F218962C9118971A965D
:1044A0008C911A971B969C911B972711F1CF3097EF
:1044B00069F48093440290934502CD010E94E63F47
:1044C00080914C02815080934C02B6CF82879387B3
:1044D000F4CF882309F46CC0E0914602F0914702C2
:1044E0008085871165C084E492E039C1C980DA8093
:1044F0004B805C808D809E80AF80B884123009F044
:1045000097C08091410287FF0DC080913902909140
:104510003A0210924102009709F060C010923A02EC
:1045200010923902E0903902F0903A02F701309788
:1045300009F05EC08CE090E00E944A3F8C01009739
:10454000B9F1FC017086D182C0825382428282E03E
:10455000818784829582A682B78213861286E114AF
:10456000F10459F0F70184819581A681B7818816FD
:104570009906AA06BB0608F043C0D8011B96FC9218
:10458000EE921A9710933A020093390280914102F9
:104590008F5F809341020E949F2010933E02009300
:1045A0003D0210933C0200933B0281E08093420263
:1045B0002A960FB6F894DEBF0FBECDBFDF91CF9124
:1045C0001F910F91FF90EF90DF90CF90BF90AF9031
:1045D0009F908F907F905F904F900895DC011A9686
:1045E0000C911A971B961C910E94E63FC80193CF2D
:1045F00080858715E9F20284F385E02D98CF7F014D
:10460000D7011A96ED91FC91309749F084819581FC
:10461000A681B78188169906AA06BB0680F7D8013D
:104620001B96FC93EE931A97F70113870287AECF80
:10463000113009F0BDCF80914C0287FF0DC08091F1
:1046400044029091450210924C02009709F04BC031
:104650001092450210924402E0904402F09045020C
:10466000F701309709F049C08CE090E00E944A3F82
:104670008C01009709F49CCFFC017086D182C08226
:104680005382428281E0818784829582A682B782AA
:1046900013861286E114F10451F0F70184819581AB
:1046A000A681B78188169906AA06BB0678F5D801B7
:1046B0001B96FC92EE921A971093450200934402C7
:1046C00080914C028F5F80934C020E949F20109338
:1046D000490200934802109347020093460281E08A
:1046E00080934D0265CFDC011A960C911A971B96A8
:1046F0001C910E94E63FC801A8CF8085871509F468
:1047000057CF0284F385E02DACCF7F01D7011A96F5
:10471000ED91FC91309749F084819581A681B78114
:1047200088169906AA06BB0680F7D8011B96FC934B
:10473000EE931A97F70113870287C2CFA091440224
:10474000B0914502A7CE992309F4C6CEE0913B0271
:10475000F0913C0290859711BCCE89E392E02A96B5
:104760000FB6F894DEBF0FBECDBFDF91CF911F9182
:104770000F91FF90EF90DF90CF90BF90AF909F9000
:104780008F907F905F904F900C945521FF920F93E4
:104790001F93CF93DF93CDB7DEB72A970FB6F89468
:1047A000DEBF0FBECDBF182F80913702813049F197
:1047B00028F0823009F44AC080E053C0812F815034
:1047C000990B9C0145E0429FC001439F900D11242D
:1047D00041E0BE016F5F7F4F855E954F0E94271DB0
:1047E000882351F3898180FF07C082E080933602DD
:1047F00081E080933702E0CF83E08093360282E04D
:10480000F8CF812F8150990B9C0149E0429FC00154
:10481000439F900D112441E066E372E08556934F6B
:104820000E94561D882341F219871A86FFB6F89414
:1048300009811A812B813C814D815E816F81788550
:1048400089859A850E94D621FFBED9CF812F0E94EB
:104850009B0B882309F4B0CF1092370210923602D6
:1048600081E02A960FB6F894DEBF0FBECDBFDF9170
:10487000CF911F910F91FF900895CF93DF93EC019B
:104880008A85882331F0823071F080E0DF91CF910A
:10489000089588858823B9F0888199819F838E83C4
:1048A00082E08A87F2CFEE81FF8180850E94C62355
:1048B000882359F3EE81FF81828593859F838E83C0
:1048C000892B19F71A8681E0E1CFCF93DF93982FD8
:1048D000EB018A85811115C0A881B981109711F467
:1048E00081E007C018962C911897291305C091E014
:1048F0009A87DF91CF9108951A960D90BC91A02DC3
:10490000EDCF892F0E94C623882399F31A86E8CF1A
:1049100080914102882321F089E392E00C94732175
:1049200080914C02882319F084E492E0F7CF8091C3
:104930003802882349F00E94080C882329F080E07F
:104940000E94261F10923802089584E492E00C948D
:104950003D2489E392E00C943D2469E372E00C94D9
:10496000652464E472E00C946524E7E5F2E0518389
:104970004083641B750B738362832093560221E08E
:1049800020935502909354028093530208951F93ED
:10499000CF93DF93CDB7DEB765970FB6F894DEBF40
:1049A0000FBECDBF0E9491138823A1F00E94EF3368
:1049B000811110C080915502823009F4ADC083305E
:1049C00009F4C5C0813031F48091560281110CC0C8
:1049D0001092550265960FB6F894DEBF0FBECDBF9C
:1049E000DF91CF911F9108958091570290915802C5
:1049F000892B09F483C00E94F23581117FC00E9487
:104A00009C2081117BC00E94FB320E94973240E1C2
:104A100060E2CE0101960E940B3CE0915302F091BE
:104A200054024185445E60E0CE0101960E94E70792
:104A3000E0915302F09154026085CE0141960E94AC
:104A40005A3C43E0481B61E170E06C0F7D1F680F2A
:104A5000711DCE010D960E94FF3B20E1AE014F5F1C
:104A60005F4F60E080E00E94BD3240E160E2CE0135
:104A700001960E940B3C4AE160E0CE0101960E9443
:104A8000E707E0915302F091540260817181CE01F9
:104A900041960E94143C15E0412F481B61E170E0F3
:104AA0006C0F7D1F680F711DCE0105960E94FF3BA4
:104AB0004BE160E0CE010A960E94E707E0915302C5
:104AC000F091540262817381CE0141960E94143CA0
:104AD000412F481B61E170E06C0F7D1F680F711D55
:104AE000CE010E960E94FF3B20E1AE014F5F5F4F6B
:104AF00060E081E00E94BD320E94F3334091570292
:104B00005091580270E060E08FE492E00E9400371C
:104B100082E0809355025ECF8FE492E00E941A37C4
:104B2000811158CF8091590290915A02892BA9F096
:104B300081E00E94F1324091590250915A0270E096
:104B400060E08FE492E00E94003783E0E2CF8FE4E0
:104B500092E00E941A3781113DCF81E08093550287
:104B60008091560281508093560234CF8091550235
:104B70000895E7E5F2E0118210821382128210920A
:104B800056021092550208951EBC1DBC1CBC87B76E
:104B90008F7E87BF0895CF93C82F0E94C42510929F
:104BA00064021092B7021092B6021092BB02E0911A
:104BB0008902F0918A02309739F085E2E63EF807E3
:104BC00019F08C2FCF910994CF91089508958FB744
:104BD000F89426EE35E230938A02209389028FBF43
:104BE00048E853E160E070E08BE592E00E94003716
:104BF00081E08093BD021092BC0208958FB7F894B3
:104C000026EE35E230938A02209389028FBF1092FC
:104C1000BC0281E08093BD0248E853E160E070E0AF
:104C20008BE592E00C9400378FB7F89426EE35E2CE
:104C300030938A02209389028FBF1092B50282E0DE
:104C40008093BC0244E650E060E070E08BE592E0C7
:104C50000C9400372BE02EBD1FBC9C0150E040E0BF
:104C600060E472E48FE090E00E94FD3E2F5F3F4FD2
:104C700050E040E086E0220F331F441F551F8A9505
:104C8000D1F760E070EC88EA90E00E94FD3E3BBD09
:104C90002ABD87B7806187BF08959FB7F89426EE35
:104CA00035E230938A02209389029FBF813021F43C
:104CB00083E08093C2020895823019F41092C202F8
:104CC000089584E0F6CF9FB7F89426EE35E230934E
:104CD0008A02209389029FBF8130B9F49091BD026E
:104CE0009F5F9093BD021092BC029091BD0297FF0E
:104CF0001BC08093BD028093BC0248E853E160E092
:104D000070E08BE592E00C940037823071F448E853
:104D100053E160E070E08BE592E00E94003781E0B3
:104D20008093BD021092BC0208958111FDCF48E826
:104D300053E160E070E08BE592E00E940037F2CF33
:104D40009FB7F89426EE35E230938A0220938902C9
:104D50009FBF813061F444E650E060E070E08BE595
:104D600092E00E94003784E08093BC020895823074
:104D700061F41092B5028093BC0244EF51E060E010
:104D800070E08BE592E00C94003784E0F4CFCF9292
:104D9000EF920F931F93CF93DF939091690260E19D
:104DA00074E0911111C09091B5029923A9F020915E
:104DB000B50230E0A4E3B0E00E94283F685F7D4F79
:104DC0008F4F9F4F660F771FCB01DF91CF911F91C0
:104DD0000F91EF90CF9008951091B8020091B60214
:104DE000C12FD0E0882301F1CE01019695958795DA
:104DF0008032910514F480E290E081508093B802F3
:104E0000C090B8020E94BB402FE1E22E0FEF1FEFCF
:104E10002FEF3FE740E00E944C3B94E3899FB001B5
:104E20001124605F7B4FD0CF802F0E94803B219662
:104E3000282F2C9FC0012D9F900D11248115944087
:104E40003CF4802F0E94803B189F800D1124D5CF09
:104E50008FEFD4CFCF93DF931092BB0291E090936A
:104E60005F02CBE8D2E0806388838091B5028983BA
:104E70006A8344E06EE672E08EE892E00E94FF3BB7
:104E800089E08F8368E0CE010E94C73C888783E079
:104E90008093640288E092E0DF91CF910C942A26FF
:104EA00080916B028F708B3009F456C058F48A30B1
:104EB00079F180916902882309F44DC060916C02F8
:104EC0008AE024C08C3009F462C08D3091F7809163
:104ED0006902811140C082E00E94CB2548E853E17D
:104EE00060E070E08BE592E00E94003783E0809301
:104EF000BC021092B50244E065E672E083E792E0FE
:104F00000E948C3B882341F060E08BE00C942A27C0
:104F100080916902811107C084E08093640280E27D
:104F20009BEC0C942A2683E08093BC0244E06EE65E
:104F300072E081EB92E00E94FF3B48E853E160E0C1
:104F400070E08BE592E00E94003780916D026091E5
:104F50006C028F3FD1F60895809169028111FBCFD9
:104F600044E065E672E084E792E00E948C3B88238F
:104F700099F282E00E94CB251092BC0280917302CC
:104F80008093B5028091B5028093BD02D6CF82E0B6
:104F90000E94CB2580916902811126C08FB7F894B9
:104FA00026EE35E230938A02209389028FBF8091EA
:104FB0006D028F3F69F41092B50283E08093BC02CA
:104FC00048E853E160E070E08BE592E00C94003734
:104FD00082E08093BC0248EE53E060E070E08BE535
:104FE00092E00E94003798CF48E853E160E070E01B
:104FF0008BE592E00E94003744E06EE672E081EBC0
:1050000092E00E94FF3B82E08093BC0260E08BE074
:105010000E942A2781E08093BD0208958091B70203
:10502000813051F482E08093640281E00E94C726BF
:10503000009771F00C942A268091B702823031F4E7
:1050400085E08093640285E090E0F4CF10926402E2
:1050500008958091690281110BC08091B502811180
:1050600007C084E08093640280E29BEC0C942A26C3
:1050700020916D028091B502281771F12F3F61F1E7
:10508000809162029091C5029813EBCF80917202D9
:1050900089508093D8028091D802853140F44091A4
:1050A000D80263E772E084EC92E00E94FF3B8091BB
:1050B0006C028093DA0280916D028093D902809114
:1050C0006B028F708A3021F481E08093C302C9CFD4
:1050D0008B3039F682E0F9CF80916B028F708A5065
:1050E000990B029748F02F3F29F060916C028AE0FB
:1050F0000C942A270C940E288091C302882319F05F
:105100002F3F99F708958091720289508093D802B9
:105110008091D802853140F44091D80263E772E073
:1051200084EC92E00E94FF3B60916C026093DA0293
:1051300090916D029093D90280916B028F708B30A9
:1051400039F482E08093C3029F3FA1F28BE0D0CF7D
:105150008A30D1F781E0F6CF1F920F920FB60F92EF
:1051600011240F900FBE0F901F9018951F920F9251
:105170000FB60F9211240BB60F922F933F934F93BC
:105180005F936F937F938F939F93AF93BF93EF93AF
:10519000FF930E94C42581E080936402FF91EF9108
:1051A000BF91AF919F918F917F916F915F914F913F
:1051B0003F912F910F900BBE0F900FBE0F901F903D
:1051C00018951F920F920FB60F9211240BB60F92E3
:1051D0002F933F934F935F936F937F938F939F93FF
:1051E000AF93BF93EF93FF930E94C4250E943D3B72
:1051F000909188029D3108F088C0E0918802F0E02B
:10520000E559FD4F808390916A02913009F45EC0A8
:1052100030F0923091F182E080936A022EC0A0912A
:105220008802E091BB02B0E0A559BD4FF0E0EC561A
:10523000FD4F9C918081981741F08091B9028F5F5A
:105240008093B9021092BB02E6CF8091BB028F5FC0
:105250008093BB029091BB028091BA02981748F4E8
:10526000E091BB02F0E0EC56FD4F80810E943A3B9A
:1052700004C01092BB021092B902809188028F5F25
:105280008093880288E092E00E942A2681E0809341
:10529000640280916A008F7E80936A0080916A0028
:1052A000806280936A00FF91EF91BF91AF919F91CF
:1052B0008F917F916F915F914F913F912F910F90BF
:1052C0000BBE0F900FBE0F901F901895E091BB0280
:1052D000F0E0E557FD4F9081891719F010925F02B9
:1052E000B1CF8091BB028F5F8093BB028091BB02E4
:1052F000893030F4E091BB02F0E0E557FD4FB5CFC7
:1053000010925F021092BB02B8CF10928802BACFFF
:10531000809369024093650250936602609367022E
:105320007093680280916902882339F081E080934C
:10533000BC02CB01BA010C940A411092BC02F9CF15
:105340008091B70281110EC080915F0281110AC065
:1053500080916402811106C06FEF8DE00E942A27C0
:1053600081E0089580E008951F920F920FB60F928A
:1053700011240BB60F922F933F934F935F936F932C
:105380007F938F939F93AF93BF93CF93EF93FF93AD
:105390000E94C42580916402823009F406C148F459
:1053A000882309F447C08130F9F081E080936402DA
:1053B00041C0843009F487C008F402C18530A9F7E0
:1053C0008091B602853008F007C18091B6028F5FE8
:1053D0008093B60282E08093640280E00E94C72638
:1053E000009709F08CC026C01092BB021092640294
:1053F00080916A02813091F138F0823009F446C020
:1054000082E080936A024CC01092880280916D0203
:105410008F3F21F481E00E94CB250CC085E0809372
:10542000640285E090E00E942A2682E080936A026E
:105430008093B702FF91EF91CF91BF91AF919F9170
:105440008F917F916F915F914F913F912F910F902D
:105450000BBE0F900FBE0F901F90189510928802F0
:1054600010925F02109288020E940E2880916302BF
:10547000882301F310926302E0916002F0916102CF
:105480003097C1F28BE692E00995D4CF80918802E3
:10549000893020F0809188028E3128F010925F02CE
:1054A0001092880210C01092880260917202E62F5A
:1054B000F0E0E659FD4FC08161508BE692E00E941A
:1054C000C73CC81719F00E940E28B4CF80916B0218
:1054D000982F92959F70913081F1A0F0923091F1C8
:1054E000933089F790916D022091B502921779F16E
:1054F0009F3F69F184E08093640280E29BEC0E940C
:105500002A2698CF8A3009F095CF80916D028F3F7F
:1055100009F090CF80916C0281118CCF8091720242
:10552000803109F087CF81E0809363021092BC0242
:105530006FEF8BE00E942A277DCF8F7090E00E9452
:10554000502778CF8F7090E00E94292873CF8F70FA
:105550008B3061F444E065E672E08EE692E00E94F2
:105560008C3B882339F21092640254CF8A30B1F414
:1055700044E065E672E08EE692E00E948C3B882370
:1055800009F4B8CF1092BB0285E08093640280E6F4
:1055900098E10E942A261092B9024CCF8C3009F46F
:1055A000A9CF8D3009F046CF8ECF1092BB0210925A
:1055B0008802809194020E943A3B10926A023ACF8C
:1055C0001092BB021092880281E080936A0280915F
:1055D0008B020E943A3B2ECF81E0809364021092AE
:1055E000B7021092B6028091890290918A020097C8
:1055F00009F420CF865E954209F41CCF0E94A029B1
:10560000E0918902F0918A0280E0099513CFCF934F
:10561000C1E0C09369021092650210926602109276
:105620006702109268021092640210925F028FE18A
:105630008093B8021092B9021092BA021092B70287
:105640001092B5021092BB024DE160E084E992E055
:105650000E940B3C44E160E084EC92E00E940B3C31
:105660004DE160E08BE692E00E940B3C49E060E097
:105670008BE892E00E940B3C1092880282E08093BB
:105680006A021092BC02C093BD021092C202109234
:10569000C3021092BF021092BE021092C102109279
:1056A000C002109263021092610210926002109286
:1056B000620286EE95E290938A028093890289B70E
:1056C000846089BFEAE6F0E080818F7E80838081FC
:1056D00080628083CF910895EF92FF920F931F9382
:1056E000CF93DF9390915F02911154C09091B702D4
:1056F000911150C09091640291114CC0253108F075
:1057000047C0C22F7B01DFB7F89410938A02009341
:10571000890291E09093B70292E090936402109214
:10572000BB021092B602809394028091B5028093DE
:1057300095024093960244E065E672E087E992E0C4
:105740000E94FF3BCC2349F0E114F10431F04C2FCF
:10575000B7018CE992E00E94FF3B89E08C0F8093B7
:10576000BA028091BA0280939B0268E06C0F84E9D0
:1057700092E00E94C73CEC2FF0E0EC56FD4F808792
:1057800081E00E94C726009711F00E942A26DFBF01
:1057900081E001C080E0DF91CF911F910F91FF90D8
:1057A000EF9008950F931F93CF93DF9300D000D015
:1057B0001F92CDB7DEB7809162028823B1F00E94BC
:1057C000333B8823E1F00E943D3B10925F02109230
:1057D00088021092BB0244E650E060E070E08BE586
:1057E00092E00E9400370E940E280F900F900F90B9
:1057F0000F900F90DF91CF911F910F91089580919D
:10580000650290916602A0916702B0916802892BAF
:105810008A2B8B2B19F180916902882309F451C0DE
:105820008091BC02813041F0C8F0823039F1833080
:10583000A9F11092BC0212C00EEF15E220E04FEF6A
:1058400070E060E08CE10E946C2B81111092BC0230
:105850008BE592E00E941A37882359F38091650204
:1058600090916602A0916702B0916802892B8A2B01
:105870008B2B09F0A2C01092C302B7CF44E061EBBA
:1058800072E0CE0101960E94FF3B07EE15E224E094
:1058900040E0BE016F5F7F4F8DE1D5CF8091BD02AB
:1058A000898344E061EB72E0CE0102960E94FF3BE7
:1058B00003E616E225E040E0BE016F5F7F4F8BE11B
:1058C000C2CF8091B5028111B4CF8091BC028230E9
:1058D00009F4BECF68F5882309F43FC0813009F090
:1058E000A8CF80916902898304E116E221E040E0BB
:1058F000BE016F5F7F4F8CE10E946C2B882359F0B3
:1059000048E853E160E070E08BE592E00E940037E8
:1059100082E08093BC028BE592E00E941A378111ED
:105920009DCF10925F021092B7021092640281CF55
:105930008330F9F0843009F07CCF8BE592E00E944F
:105940001A3781118BCF48E853E160E070E08BE5B6
:1059500092E00E94003783E009C048E853E160E02C
:1059600070E08BE592E00E94003781E08093BC02FA
:1059700075CF00EA16E220E040E070E060E08AE1E6
:105980000E946C2B882319F084E08093BC028BE585
:1059900092E00E941A37811161CF10925F0210923B
:1059A000B7021092640244EF51E060E070E08BE5D2
:1059B00092E00E94003784E0D9CF8091B502811136
:1059C00005C080916902882309F455CF80915F0258
:1059D00081110BCF8091C302813051F008F405CFC3
:1059E000823009F048CFE091C002F091C10204C0BA
:1059F000E091BE02F091BF02309709F43CCF409194
:105A0000D8026091DA028091D90224EC32E0099543
:105A1000882309F4EACE2FCF8091BD020895909398
:105A2000BF028093BE0208959093C1028093C0028A
:105A30000895CF92DF92EF92FF920F931F93C09041
:105A40006502D0906602E0906702F0906802CD286F
:105A5000CE28CF2819F41092C2024AC03091B50264
:105A6000311104C0309169023323A9F3322F262F5C
:105A7000BC019091C2029230E9F138F4992351F0BF
:105A80009130A9F01092C20210C09330E1F194302D
:105A900011F3F8CF48E853E160E070E08BE592E065
:105AA0000E94003781E08093C20280E02FC00DE4A5
:105AB00016E2832F80620E946C2B882359F048E8FD
:105AC00053E160E070E08BE592E00E94003782E0F5
:105AD0008093C2028BE592E00E941A378111E5CFD4
